0000010000010000015007500325024ACTIVE    006
0000020000020000120000000175036ACTIVE    012
0000030000030000075000000450018CLOSED    018
0000040000040000200005000225060ACTIVE    022
0000050000050000030009900100012PENDING   000
